{
  "_format": "hh-sol-artifact-1",
  "contractName": "Rocket",
  "sourceName": "contracts/RocketNFT.sol",
  "abi": [
    {
      "inputs": [
        {
          "internalType": "address",
          "name": "initialOwner",
          "type": "address"
        }
      ],
      "stateMutability": "nonpayable",
      "type": "constructor"
    },
    {
      "anonymous": false,
      "inputs": [
        {
          "indexed": true,
          "internalType": "address",
          "name": "owner",
          "type": "address"
        },
        {
          "indexed": true,
          "internalType": "address",
          "name": "approved",
          "type": "address"
        },
        {
          "indexed": true,
          "internalType": "uint256",
          "name": "tokenId",
          "type": "uint256"
        }
      ],
      "name": "Approval",
      "type": "event"
    },
    {
      "anonymous": false,
      "inputs": [
        {
          "indexed": true,
          "internalType": "address",
          "name": "owner",
          "type": "address"
        },
        {
          "indexed": true,
          "internalType": "address",
          "name": "operator",
          "type": "address"
        },
        {
          "indexed": false,
          "internalType": "bool",
          "name": "approved",
          "type": "bool"
        }
      ],
      "name": "ApprovalForAll",
      "type": "event"
    },
    {
      "anonymous": false,
      "inputs": [
        {
          "indexed": true,
          "internalType": "address",
          "name": "from",
          "type": "address"
        },
        {
          "indexed": true,
          "internalType": "address",
          "name": "to",
          "type": "address"
        },
        {
          "indexed": true,
          "internalType": "uint256",
          "name": "tokenId",
          "type": "uint256"
        }
      ],
      "name": "Transfer",
      "type": "event"
    },
    {
      "inputs": [
        {
          "internalType": "address",
          "name": "to",
          "type": "address"
        },
        {
          "internalType": "uint256",
          "name": "tokenId",
          "type": "uint256"
        }
      ],
      "name": "approve",
      "outputs": [],
      "stateMutability": "nonpayable",
      "type": "function"
    },
    {
      "inputs": [
        {
          "internalType": "address",
          "name": "owner",
          "type": "address"
        }
      ],
      "name": "balanceOf",
      "outputs": [
        {
          "internalType": "uint256",
          "name": "",
          "type": "uint256"
        }
      ],
      "stateMutability": "view",
      "type": "function"
    },
    {
      "inputs": [
        {
          "internalType": "uint256",
          "name": "tokenId",
          "type": "uint256"
        }
      ],
      "name": "burn",
      "outputs": [],
      "stateMutability": "nonpayable",
      "type": "function"
    },
    {
      "inputs": [
        {
          "internalType": "uint256",
          "name": "tokenId",
          "type": "uint256"
        }
      ],
      "name": "getApproved",
      "outputs": [
        {
          "internalType": "address",
          "name": "",
          "type": "address"
        }
      ],
      "stateMutability": "view",
      "type": "function"
    },
    {
      "inputs": [],
      "name": "getCurrentTokenId",
      "outputs": [
        {
          "internalType": "uint256",
          "name": "",
          "type": "uint256"
        }
      ],
      "stateMutability": "view",
      "type": "function"
    },
    {
      "inputs": [
        {
          "internalType": "address",
          "name": "owner",
          "type": "address"
        },
        {
          "internalType": "address",
          "name": "operator",
          "type": "address"
        }
      ],
      "name": "isApprovedForAll",
      "outputs": [
        {
          "internalType": "bool",
          "name": "",
          "type": "bool"
        }
      ],
      "stateMutability": "view",
      "type": "function"
    },
    {
      "inputs": [],
      "name": "name",
      "outputs": [
        {
          "internalType": "string",
          "name": "",
          "type": "string"
        }
      ],
      "stateMutability": "view",
      "type": "function"
    },
    {
      "inputs": [
        {
          "internalType": "uint256",
          "name": "tokenId",
          "type": "uint256"
        }
      ],
      "name": "ownerOf",
      "outputs": [
        {
          "internalType": "address",
          "name": "",
          "type": "address"
        }
      ],
      "stateMutability": "view",
      "type": "function"
    },
    {
      "inputs": [
        {
          "internalType": "address",
          "name": "to",
          "type": "address"
        }
      ],
      "name": "safeMint",
      "outputs": [],
      "stateMutability": "nonpayable",
      "type": "function"
    },
    {
      "inputs": [
        {
          "internalType": "address",
          "name": "from",
          "type": "address"
        },
        {
          "internalType": "address",
          "name": "to",
          "type": "address"
        },
        {
          "internalType": "uint256",
          "name": "tokenId",
          "type": "uint256"
        }
      ],
      "name": "safeTransferFrom",
      "outputs": [],
      "stateMutability": "nonpayable",
      "type": "function"
    },
    {
      "inputs": [
        {
          "internalType": "address",
          "name": "from",
          "type": "address"
        },
        {
          "internalType": "address",
          "name": "to",
          "type": "address"
        },
        {
          "internalType": "uint256",
          "name": "tokenId",
          "type": "uint256"
        },
        {
          "internalType": "bytes",
          "name": "data",
          "type": "bytes"
        }
      ],
      "name": "safeTransferFrom",
      "outputs": [],
      "stateMutability": "nonpayable",
      "type": "function"
    },
    {
      "inputs": [
        {
          "internalType": "address",
          "name": "operator",
          "type": "address"
        },
        {
          "internalType": "bool",
          "name": "approved",
          "type": "bool"
        }
      ],
      "name": "setApprovalForAll",
      "outputs": [],
      "stateMutability": "nonpayable",
      "type": "function"
    },
    {
      "inputs": [
        {
          "internalType": "bytes4",
          "name": "interfaceId",
          "type": "bytes4"
        }
      ],
      "name": "supportsInterface",
      "outputs": [
        {
          "internalType": "bool",
          "name": "",
          "type": "bool"
        }
      ],
      "stateMutability": "view",
      "type": "function"
    },
    {
      "inputs": [],
      "name": "symbol",
      "outputs": [
        {
          "internalType": "string",
          "name": "",
          "type": "string"
        }
      ],
      "stateMutability": "view",
      "type": "function"
    },
    {
      "inputs": [
        {
          "internalType": "uint256",
          "name": "tokenId",
          "type": "uint256"
        }
      ],
      "name": "tokenURI",
      "outputs": [
        {
          "internalType": "string",
          "name": "",
          "type": "string"
        }
      ],
      "stateMutability": "view",
      "type": "function"
    },
    {
      "inputs": [
        {
          "internalType": "address",
          "name": "from",
          "type": "address"
        },
        {
          "internalType": "address",
          "name": "to",
          "type": "address"
        },
        {
          "internalType": "uint256",
          "name": "tokenId",
          "type": "uint256"
        }
      ],
      "name": "transferFrom",
      "outputs": [],
      "stateMutability": "nonpayable",
      "type": "function"
    }
  ],
  "bytecode": "0x60806040523480156200001157600080fd5b5060405162002bf738038062002bf783398181016040528101906200003791906200013a565b6040518060400160405280600681526020017f526f636b657400000000000000000000000000000000000000000000000000008152506040518060400160405280600481526020017f52434b54000000000000000000000000000000000000000000000000000000008152508160009081620000b49190620003e6565b508060019081620000c69190620003e6565b50505050620004cd565b600080fd5b600073ffffffffffffffffffffffffffffffffffffffff82169050919050565b60006200010282620000d5565b9050919050565b6200011481620000f5565b81146200012057600080fd5b50565b600081519050620001348162000109565b92915050565b600060208284031215620001535762000152620000d0565b5b6000620001638482850162000123565b91505092915050565b600081519050919050565b7f4e487b7100000000000000000000000000000000000000000000000000000000600052604160045260246000fd5b7f4e487b7100000000000000000000000000000000000000000000000000000000600052602260045260246000fd5b60006002820490506001821680620001ee57607f821691505b602082108103620002045762000203620001a6565b5b50919050565b60008190508160005260206000209050919050565b60006020601f8301049050919050565b600082821b905092915050565b6000600883026200026e7fffffffffffffffffffffffffffffffffffffffffffffffffffffffffffffffff826200022f565b6200027a86836200022f565b95508019841693508086168417925050509392505050565b6000819050919050565b6000819050919050565b6000620002c7620002c1620002bb8462000292565b6200029c565b62000292565b9050919050565b6000819050919050565b620002e383620002a6565b620002fb620002f282620002ce565b8484546200023c565b825550505050565b600090565b6200031262000303565b6200031f818484620002d8565b505050565b5b8181101562000347576200033b60008262000308565b60018101905062000325565b5050565b601f821115620003965762000360816200020a565b6200036b846200021f565b810160208510156200037b578190505b620003936200038a856200021f565b83018262000324565b50505b505050565b600082821c905092915050565b6000620003bb600019846008026200039b565b1980831691505092915050565b6000620003d68383620003a8565b9150826002028217905092915050565b620003f1826200016c565b67ffffffffffffffff8111156200040d576200040c62000177565b5b620004198254620001d5565b620004268282856200034b565b600060209050601f8311600181146200045e576000841562000449578287015190505b620004558582620003c8565b865550620004c5565b601f1984166200046e866200020a565b60005b82811015620004985784890151825560018201915060208501945060208101905062000471565b86831015620004b85784890151620004b4601f891682620003a8565b8355505b6001600288020188555050505b505050505050565b61271a80620004dd6000396000f3fe608060405234801561001057600080fd5b50600436106101005760003560e01c80635618923611610097578063a22cb46511610066578063a22cb465146102ab578063b88d4fde146102c7578063c87b56dd146102e3578063e985e9c51461031357610100565b8063561892361461020f5780636352211e1461022d57806370a082311461025d57806395d89b411461028d57610100565b806323b872dd116100d357806323b872dd1461019f57806340d097c3146101bb57806342842e0e146101d757806342966c68146101f357610100565b806301ffc9a71461010557806306fdde0314610135578063081812fc14610153578063095ea7b314610183575b600080fd5b61011f600480360381019061011a9190611a16565b610343565b60405161012c9190611a5e565b60405180910390f35b61013d610425565b60405161014a9190611b09565b60405180910390f35b61016d60048036038101906101689190611b61565b6104b7565b60405161017a9190611bcf565b60405180910390f35b61019d60048036038101906101989190611c16565b6104fd565b005b6101b960048036038101906101b49190611c56565b610614565b005b6101d560048036038101906101d09190611ca9565b610674565b005b6101f160048036038101906101ec9190611c56565b61069a565b005b61020d60048036038101906102089190611b61565b6106ba565b005b610217610716565b6040516102249190611ce5565b60405180910390f35b61024760048036038101906102429190611b61565b610727565b6040516102549190611bcf565b60405180910390f35b61027760048036038101906102729190611ca9565b6107ad565b6040516102849190611ce5565b60405180910390f35b610295610864565b6040516102a29190611b09565b60405180910390f35b6102c560048036038101906102c09190611d2c565b6108f6565b005b6102e160048036038101906102dc9190611ea1565b61090c565b005b6102fd60048036038101906102f89190611b61565b61096e565b60405161030a9190611b09565b60405180910390f35b61032d60048036038101906103289190611f24565b6109d6565b60405161033a9190611a5e565b60405180910390f35b60007f80ac58cd000000000000000000000000000000000000000000000000000000007bffffffffffffffffffffffffffffffffffffffffffffffffffffffff1916827bffffffffffffffffffffffffffffffffffffffffffffffffffffffff1916148061040e57507f5b5e139f000000000000000000000000000000000000000000000000000000007bffffffffffffffffffffffffffffffffffffffffffffffffffffffff1916827bffffffffffffffffffffffffffffffffffffffffffffffffffffffff1916145b8061041e575061041d82610a6a565b5b9050919050565b60606000805461043490611f93565b80601f016020809104026020016040519081016040528092919081815260200182805461046090611f93565b80156104ad5780601f10610482576101008083540402835291602001916104ad565b820191906000526020600020905b81548152906001019060200180831161049057829003601f168201915b5050505050905090565b60006104c282610ad4565b6004600083815260200190815260200160002060009054906101000a900473ffffffffffffffffffffffffffffffffffffffff169050919050565b600061050882610727565b90508073ffffffffffffffffffffffffffffffffffffffff168373ffffffffffffffffffffffffffffffffffffffff1603610578576040517f08c379a000000000000000000000000000000000000000000000000000000000815260040161056f90612036565b60405180910390fd5b8073ffffffffffffffffffffffffffffffffffffffff16610597610b1f565b73ffffffffffffffffffffffffffffffffffffffff1614806105c657506105c5816105c0610b1f565b6109d6565b5b610605576040517f08c379a00000000000000000000000000000000000000000000000000000000081526004016105fc906120c8565b60405180910390fd5b61060f8383610b27565b505050565b61062561061f610b1f565b82610be0565b610664576040517f08c379a000000000000000000000000000000000000000000000000000000000815260040161065b9061215a565b60405180910390fd5b61066f838383610c75565b505050565b61067e6006610f6e565b600061068a6006610f84565b90506106968282610f92565b5050565b6106b58383836040518060200160405280600081525061090c565b505050565b6106cb6106c5610b1f565b82610be0565b61070a576040517f08c379a00000000000000000000000000000000000000000000000000000000081526004016107019061215a565b60405180910390fd5b61071381610fb0565b50565b60006107226006610f84565b905090565b600080610733836110fe565b9050600073ffffffffffffffffffffffffffffffffffffffff168173ffffffffffffffffffffffffffffffffffffffff16036107a4576040517f08c379a000000000000000000000000000000000000000000000000000000000815260040161079b906121c6565b60405180910390fd5b80915050919050565b60008073ffffffffffffffffffffffffffffffffffffffff168273ffffffffffffffffffffffffffffffffffffffff160361081d576040517f08c379a000000000000000000000000000000000000000000000000000000000815260040161081490612258565b60405180910390fd5b600360008373ffffffffffffffffffffffffffffffffffffffff1673ffffffffffffffffffffffffffffffffffffffff168152602001908152602001600020549050919050565b60606001805461087390611f93565b80601f016020809104026020016040519081016040528092919081815260200182805461089f90611f93565b80156108ec5780601f106108c1576101008083540402835291602001916108ec565b820191906000526020600020905b8154815290600101906020018083116108cf57829003601f168201915b5050505050905090565b610908610901610b1f565b838361113b565b5050565b61091d610917610b1f565b83610be0565b61095c576040517f08c379a00000000000000000000000000000000000000000000000000000000081526004016109539061215a565b60405180910390fd5b610968848484846112a7565b50505050565b606061097982610ad4565b6000610983611303565b905060008151116109a357604051806020016040528060008152506109ce565b806109ad8461131a565b6040516020016109be9291906122b4565b6040516020818303038152906040525b915050919050565b6000600560008473ffffffffffffffffffffffffffffffffffffffff1673ffffffffffffffffffffffffffffffffffffffff16815260200190815260200160002060008373ffffffffffffffffffffffffffffffffffffffff1673ffffffffffffffffffffffffffffffffffffffff16815260200190815260200160002060009054906101000a900460ff16905092915050565b60007f01ffc9a7000000000000000000000000000000000000000000000000000000007bffffffffffffffffffffffffffffffffffffffffffffffffffffffff1916827bffffffffffffffffffffffffffffffffffffffffffffffffffffffff1916149050919050565b610add816113e8565b610b1c576040517f08c379a0000000000000000000000000000000000000000000000000000000008152600401610b13906121c6565b60405180910390fd5b50565b600033905090565b816004600083815260200190815260200160002060006101000a81548173ffffffffffffffffffffffffffffffffffffffff021916908373ffffffffffffffffffffffffffffffffffffffff160217905550808273ffffffffffffffffffffffffffffffffffffffff16610b9a83610727565b73ffffffffffffffffffffffffffffffffffffffff167f8c5be1e5ebec7d5bd14f71427d1e84f3dd0314c0f7b2291e5b200ac8c7c3b92560405160405180910390a45050565b600080610bec83610727565b90508073ffffffffffffffffffffffffffffffffffffffff168473ffffffffffffffffffffffffffffffffffffffff161480610c2e5750610c2d81856109d6565b5b80610c6c57508373ffffffffffffffffffffffffffffffffffffffff16610c54846104b7565b73ffffffffffffffffffffffffffffffffffffffff16145b91505092915050565b8273ffffffffffffffffffffffffffffffffffffffff16610c9582610727565b73ffffffffffffffffffffffffffffffffffffffff1614610ceb576040517f08c379a0000000000000000000000000000000000000000000000000000000008152600401610ce29061234a565b60405180910390fd5b600073ffffffffffffffffffffffffffffffffffffffff168273ffffffffffffffffffffffffffffffffffffffff1603610d5a576040517f08c379a0000000000000000000000000000000000000000000000000000000008152600401610d51906123dc565b60405180910390fd5b610d678383836001611429565b8273ffffffffffffffffffffffffffffffffffffffff16610d8782610727565b73ffffffffffffffffffffffffffffffffffffffff1614610ddd576040517f08c379a0000000000000000000000000000000000000000000000000000000008152600401610dd49061234a565b60405180910390fd5b6004600082815260200190815260200160002060006101000a81549073ffffffffffffffffffffffffffffffffffffffff02191690556001600360008573ffffffffffffffffffffffffffffffffffffffff1673ffffffffffffffffffffffffffffffffffffffff168152602001908152602001600020600082825403925050819055506001600360008473ffffffffffffffffffffffffffffffffffffffff1673ffffffffffffffffffffffffffffffffffffffff16815260200190815260200160002060008282540192505081905550816002600083815260200190815260200160002060006101000a81548173ffffffffffffffffffffffffffffffffffffffff021916908373ffffffffffffffffffffffffffffffffffffffff160217905550808273ffffffffffffffffffffffffffffffffffffffff168473ffffffffffffffffffffffffffffffffffffffff167fddf252ad1be2c89b69c2b068fc378daa952ba7f163c4a11628f55a4df523b3ef60405160405180910390a4610f69838383600161142f565b505050565b6001816000016000828254019250508190555050565b600081600001549050919050565b610fac828260405180602001604052806000815250611435565b5050565b6000610fbb82610727565b9050610fcb816000846001611429565b610fd482610727565b90506004600083815260200190815260200160002060006101000a81549073ffffffffffffffffffffffffffffffffffffffff02191690556001600360008373ffffffffffffffffffffffffffffffffffffffff1673ffffffffffffffffffffffffffffffffffffffff168152602001908152602001600020600082825403925050819055506002600083815260200190815260200160002060006101000a81549073ffffffffffffffffffffffffffffffffffffffff021916905581600073ffffffffffffffffffffffffffffffffffffffff168273ffffffffffffffffffffffffffffffffffffffff167fddf252ad1be2c89b69c2b068fc378daa952ba7f163c4a11628f55a4df523b3ef60405160405180910390a46110fa81600084600161142f565b5050565b60006002600083815260200190815260200160002060009054906101000a900473ffffffffffffffffffffffffffffffffffffffff169050919050565b8173ffffffffffffffffffffffffffffffffffffffff168373ffffffffffffffffffffffffffffffffffffffff16036111a9576040517f08c379a00000000000000000000000000000000000000000000000000000000081526004016111a090612448565b60405180910390fd5b80600560008573ffffffffffffffffffffffffffffffffffffffff1673ffffffffffffffffffffffffffffffffffffffff16815260200190815260200160002060008473ffffffffffffffffffffffffffffffffffffffff1673ffffffffffffffffffffffffffffffffffffffff16815260200190815260200160002060006101000a81548160ff0219169083151502179055508173ffffffffffffffffffffffffffffffffffffffff168373ffffffffffffffffffffffffffffffffffffffff167f17307eab39ab6107e8899845ad3d59bd9653f200f220920489ca2b5937696c318360405161129a9190611a5e565b60405180910390a3505050565b6112b2848484610c75565b6112be84848484611490565b6112fd576040517f08c379a00000000000000000000000000000000000000000000000000000000081526004016112f4906124da565b60405180910390fd5b50505050565b606060405180602001604052806000815250905090565b60606000600161132984611617565b01905060008167ffffffffffffffff81111561134857611347611d76565b5b6040519080825280601f01601f19166020018201604052801561137a5781602001600182028036833780820191505090505b509050600082602001820190505b6001156113dd578080600190039150507f3031323334353637383961626364656600000000000000000000000000000000600a86061a8153600a85816113d1576113d06124fa565b5b04945060008503611388575b819350505050919050565b60008073ffffffffffffffffffffffffffffffffffffffff1661140a836110fe565b73ffffffffffffffffffffffffffffffffffffffff1614159050919050565b50505050565b50505050565b61143f838361176a565b61144c6000848484611490565b61148b576040517f08c379a0000000000000000000000000000000000000000000000000000000008152600401611482906124da565b60405180910390fd5b505050565b60006114b18473ffffffffffffffffffffffffffffffffffffffff16611987565b1561160a578373ffffffffffffffffffffffffffffffffffffffff1663150b7a026114da610b1f565b8786866040518563ffffffff1660e01b81526004016114fc949392919061257e565b6020604051808303816000875af192505050801561153857506040513d601f19601f8201168201806040525081019061153591906125df565b60015b6115ba573d8060008114611568576040519150601f19603f3d011682016040523d82523d6000602084013e61156d565b606091505b5060008151036115b2576040517f08c379a00000000000000000000000000000000000000000000000000000000081526004016115a9906124da565b60405180910390fd5b805181602001fd5b63150b7a0260e01b7bffffffffffffffffffffffffffffffffffffffffffffffffffffffff1916817bffffffffffffffffffffffffffffffffffffffffffffffffffffffff19161491505061160f565b600190505b949350505050565b600080600090507a184f03e93ff9f4daa797ed6e38ed64bf6a1f0100000000000000008310611675577a184f03e93ff9f4daa797ed6e38ed64bf6a1f010000000000000000838161166b5761166a6124fa565b5b0492506040810190505b6d04ee2d6d415b85acef810000000083106116b2576d04ee2d6d415b85acef810000000083816116a8576116a76124fa565b5b0492506020810190505b662386f26fc1000083106116e157662386f26fc1000083816116d7576116d66124fa565b5b0492506010810190505b6305f5e100831061170a576305f5e1008381611700576116ff6124fa565b5b0492506008810190505b612710831061172f576127108381611725576117246124fa565b5b0492506004810190505b606483106117525760648381611748576117476124fa565b5b0492506002810190505b600a8310611761576001810190505b80915050919050565b600073ffffffffffffffffffffffffffffffffffffffff168273ffffffffffffffffffffffffffffffffffffffff16036117d9576040517f08c379a00000000000000000000000000000000000000000000000000000000081526004016117d090612658565b60405180910390fd5b6117e2816113e8565b15611822576040517f08c379a0000000000000000000000000000000000000000000000000000000008152600401611819906126c4565b60405180910390fd5b611830600083836001611429565b611839816113e8565b15611879576040517f08c379a0000000000000000000000000000000000000000000000000000000008152600401611870906126c4565b60405180910390fd5b6001600360008473ffffffffffffffffffffffffffffffffffffffff1673ffffffffffffffffffffffffffffffffffffffff16815260200190815260200160002060008282540192505081905550816002600083815260200190815260200160002060006101000a81548173ffffffffffffffffffffffffffffffffffffffff021916908373ffffffffffffffffffffffffffffffffffffffff160217905550808273ffffffffffffffffffffffffffffffffffffffff16600073ffffffffffffffffffffffffffffffffffffffff167fddf252ad1be2c89b69c2b068fc378daa952ba7f163c4a11628f55a4df523b3ef60405160405180910390a461198360008383600161142f565b5050565b6000808273ffffffffffffffffffffffffffffffffffffffff163b119050919050565b6000604051905090565b600080fd5b600080fd5b60007fffffffff0000000000000000000000000000000000000000000000000000000082169050919050565b6119f3816119be565b81146119fe57600080fd5b50565b600081359050611a10816119ea565b92915050565b600060208284031215611a2c57611a2b6119b4565b5b6000611a3a84828501611a01565b91505092915050565b60008115159050919050565b611a5881611a43565b82525050565b6000602082019050611a736000830184611a4f565b92915050565b600081519050919050565b600082825260208201905092915050565b60005b83811015611ab3578082015181840152602081019050611a98565b60008484015250505050565b6000601f19601f8301169050919050565b6000611adb82611a79565b611ae58185611a84565b9350611af5818560208601611a95565b611afe81611abf565b840191505092915050565b60006020820190508181036000830152611b238184611ad0565b905092915050565b6000819050919050565b611b3e81611b2b565b8114611b4957600080fd5b50565b600081359050611b5b81611b35565b92915050565b600060208284031215611b7757611b766119b4565b5b6000611b8584828501611b4c565b91505092915050565b600073ffffffffffffffffffffffffffffffffffffffff82169050919050565b6000611bb982611b8e565b9050919050565b611bc981611bae565b82525050565b6000602082019050611be46000830184611bc0565b92915050565b611bf381611bae565b8114611bfe57600080fd5b50565b600081359050611c1081611bea565b92915050565b60008060408385031215611c2d57611c2c6119b4565b5b6000611c3b85828601611c01565b9250506020611c4c85828601611b4c565b9150509250929050565b600080600060608486031215611c6f57611c6e6119b4565b5b6000611c7d86828701611c01565b9350506020611c8e86828701611c01565b9250506040611c9f86828701611b4c565b9150509250925092565b600060208284031215611cbf57611cbe6119b4565b5b6000611ccd84828501611c01565b91505092915050565b611cdf81611b2b565b82525050565b6000602082019050611cfa6000830184611cd6565b92915050565b611d0981611a43565b8114611d1457600080fd5b50565b600081359050611d2681611d00565b92915050565b60008060408385031215611d4357611d426119b4565b5b6000611d5185828601611c01565b9250506020611d6285828601611d17565b9150509250929050565b600080fd5b600080fd5b7f4e487b7100000000000000000000000000000000000000000000000000000000600052604160045260246000fd5b611dae82611abf565b810181811067ffffffffffffffff82111715611dcd57611dcc611d76565b5b80604052505050565b6000611de06119aa565b9050611dec8282611da5565b919050565b600067ffffffffffffffff821115611e0c57611e0b611d76565b5b611e1582611abf565b9050602081019050919050565b82818337600083830152505050565b6000611e44611e3f84611df1565b611dd6565b905082815260208101848484011115611e6057611e5f611d71565b5b611e6b848285611e22565b509392505050565b600082601f830112611e8857611e87611d6c565b5b8135611e98848260208601611e31565b91505092915050565b60008060008060808587031215611ebb57611eba6119b4565b5b6000611ec987828801611c01565b9450506020611eda87828801611c01565b9350506040611eeb87828801611b4c565b925050606085013567ffffffffffffffff811115611f0c57611f0b6119b9565b5b611f1887828801611e73565b91505092959194509250565b60008060408385031215611f3b57611f3a6119b4565b5b6000611f4985828601611c01565b9250506020611f5a85828601611c01565b9150509250929050565b7f4e487b7100000000000000000000000000000000000000000000000000000000600052602260045260246000fd5b60006002820490506001821680611fab57607f821691505b602082108103611fbe57611fbd611f64565b5b50919050565b7f4552433732313a20617070726f76616c20746f2063757272656e74206f776e6560008201527f7200000000000000000000000000000000000000000000000000000000000000602082015250565b6000612020602183611a84565b915061202b82611fc4565b604082019050919050565b6000602082019050818103600083015261204f81612013565b9050919050565b7f4552433732313a20617070726f76652063616c6c6572206973206e6f7420746f60008201527f6b656e206f776e6572206f7220617070726f76656420666f7220616c6c000000602082015250565b60006120b2603d83611a84565b91506120bd82612056565b604082019050919050565b600060208201905081810360008301526120e1816120a5565b9050919050565b7f4552433732313a2063616c6c6572206973206e6f7420746f6b656e206f776e6560008201527f72206f7220617070726f76656400000000000000000000000000000000000000602082015250565b6000612144602d83611a84565b915061214f826120e8565b604082019050919050565b6000602082019050818103600083015261217381612137565b9050919050565b7f4552433732313a20696e76616c696420746f6b656e2049440000000000000000600082015250565b60006121b0601883611a84565b91506121bb8261217a565b602082019050919050565b600060208201905081810360008301526121df816121a3565b9050919050565b7f4552433732313a2061646472657373207a65726f206973206e6f74206120766160008201527f6c6964206f776e65720000000000000000000000000000000000000000000000602082015250565b6000612242602983611a84565b915061224d826121e6565b604082019050919050565b6000602082019050818103600083015261227181612235565b9050919050565b600081905092915050565b600061228e82611a79565b6122988185612278565b93506122a8818560208601611a95565b80840191505092915050565b60006122c08285612283565b91506122cc8284612283565b91508190509392505050565b7f4552433732313a207472616e736665722066726f6d20696e636f72726563742060008201527f6f776e6572000000000000000000000000000000000000000000000000000000602082015250565b6000612334602583611a84565b915061233f826122d8565b604082019050919050565b6000602082019050818103600083015261236381612327565b9050919050565b7f4552433732313a207472616e7366657220746f20746865207a65726f2061646460008201527f7265737300000000000000000000000000000000000000000000000000000000602082015250565b60006123c6602483611a84565b91506123d18261236a565b604082019050919050565b600060208201905081810360008301526123f5816123b9565b9050919050565b7f4552433732313a20617070726f766520746f2063616c6c657200000000000000600082015250565b6000612432601983611a84565b915061243d826123fc565b602082019050919050565b6000602082019050818103600083015261246181612425565b9050919050565b7f4552433732313a207472616e7366657220746f206e6f6e20455243373231526560008201527f63656976657220696d706c656d656e7465720000000000000000000000000000602082015250565b60006124c4603283611a84565b91506124cf82612468565b604082019050919050565b600060208201905081810360008301526124f3816124b7565b9050919050565b7f4e487b7100000000000000000000000000000000000000000000000000000000600052601260045260246000fd5b600081519050919050565b600082825260208201905092915050565b600061255082612529565b61255a8185612534565b935061256a818560208601611a95565b61257381611abf565b840191505092915050565b60006080820190506125936000830187611bc0565b6125a06020830186611bc0565b6125ad6040830185611cd6565b81810360608301526125bf8184612545565b905095945050505050565b6000815190506125d9816119ea565b92915050565b6000602082840312156125f5576125f46119b4565b5b6000612603848285016125ca565b91505092915050565b7f4552433732313a206d696e7420746f20746865207a65726f2061646472657373600082015250565b6000612642602083611a84565b915061264d8261260c565b602082019050919050565b6000602082019050818103600083015261267181612635565b9050919050565b7f4552433732313a20746f6b656e20616c7265616479206d696e74656400000000600082015250565b60006126ae601c83611a84565b91506126b982612678565b602082019050919050565b600060208201905081810360008301526126dd816126a1565b905091905056fea2646970667358221220f4a230a64b855156aa43f08aeb10df8aa523b32e654008ae5c6e20a1373185ca64736f6c63430008140033",
  "linkReferences": {},
  "deployedLinkReferences": {}
}